:030000000281007A
:03000B0002814926
:03001B0002814F10
:108100009000037482F09000027D0F8D2E74FF9D0D
:10811000F8FBF52F7A01752D007F0075892775A86A
:108120009AD295D297C294C296758C05D28E758AD2
:1081300005D28CE52C75F00A842440F00000E5F0AF
:108140002480F0000080EC80FE052D758A05320C3D
:10815000BCFF150E7C00BE100F7E00F9E52D75F0FA
:1081600002A4F52C752D00E9BF000312817EBF012A
:10817000031281A4BF02031281C1758C05322096BF
:108180000E1ABA001E0DEDFAD296C2970281A318FC
:10819000B800101BEBF8D297C296BB00067F01789F
:1081A000FF7BFF22D295D297C294C29618B80010D6
:1081B0001BEBF8BB000A7F0278FE7AFF7BFF7DFF96
:1081C0002220960E1ABA0F281DEDFAD296C29702F7
:1081D00081F008B8FF1A1BEBF8D297C296BB0F10BC
:1081E0007F00C294C296D295D29778FF7A327BFFF5
:0181F000226C
:00000001FF
