:030000000281007A
:03000B000282FE70
:03001B000283035A
:108100007482758203F0758907758134D2D3D2D415
:1081100075A8007400D2AFD2ABD2A9753301758CAB
:1081200025758A82D28CD28E908600A3E0900000C2
:1081300012822220E00C20E10E20E21020E35C20DD
:10814000E45E740002815174000281767400028141
:10815000A5B464FD74000912826C128225B905036E
:108160001282DFB906EB790012824508B864E27822
:108170000075300080FEB4D6FD74000912828312AF
:108180008225B903031282DFB904EB79001282520F
:1081900008B846E2780075300080FE74000281CA9B
:1081A00074000281FDB44AFD74000912829A1282A1
:1081B00025B908031282DFB909EB7900128245085C
:1081C000B85AE2780075300080FEB4B6FD7400093C
:1081D0001282B1128225B903031282DFB903EB794F
:1081E00000C0E0EC20E01112825FD0E0080CB86E15
:1081F000D9780075300080FE12824580EDB473FDA1
:108200007400091282C8128225B905031282DFB9EF
:1082100004EB790012824508B882E27800753000DC
:1082200080FEB29622C0E0BB000C7B01E5324440E8
:10823000758202F0800A7B00E5314480758202F08D
:108240007400D0E022C0E0E5332530F5307400D072
:10825000E022C0E074032530F5307400D0E022C085
:10826000E074022530F5307400D0E022AF30BF3228
:108270000A753031C294B530FD8005C294B530FD29
:10828000D29422AF30BFD60A7530D3C294B530FD38
:108290008005C294B530FDD29422AF30BF4A0A7532
:1082A0003049C294B530FD8005C294B530FDD294FA
:1082B00022AF30BFB70A7530B4C294B530FD800527
:1082C000C294B530FDD29422AF30BF730A753072BC
:1082D000C294B530FD8005C294B530FDD29422C061
:1082E000E07400753200753100EA75F002A475F093
:1082F0000A84F53285F0317A007400D0E022758A64
:0E830000820A32758C250DBD04037D00043207
:00000001FF
