:030000000281007A
:108100007482758203F07410758200F0E589440171
:10811000F589758CD8758AF01281232091FD128122
:108120002C80F5D29000000000C29022758201E000
:10813000F530C333B330D70FC27F12815F7535037B
:108140001281A9D535FA22D27F12815F75360212CB
:1081500081A975340A1281CBD534FAD536F122754E
:108160003100753200753300D2D3D2D4B313547FAB
:10817000307F03F4547F75F004A4A8F0B8010475AF
:108180003102C3946420D704053180F72464B80118
:108190000224370475F06484B401020531C5F0751A
:1081A000F00A84F53285F03322E5314410758202FD
:1081B000F01281CBE5324420F01281CBE53344400C
:1081C000F01281CB7480F01281CB22D28C308DFDE5
:0B81D000C28DC28C758CD8758AF0221D
:00000001FF
