:030000000281007A
:108100007482758203F07411758200F07801790031
:10811000E5894401F5891281642091FD758201E0B1
:10812000FBEBB9000A28C297D296790102813698F2
:10813000C296D2977900F5331281642091FD758241
:1081400001E0FE12816D12817FEEB400030281B462
:10815000B477030281B41281A6B533DCE875F0026E
:10816000A4F880BDD29000000000C2902275F004F7
:108170008475F003A475F00A8485F035F53422E5A2
:10818000344440758202F0128196E5354480758250
:1081900002F012819622D28C308DFDC28DC28C7578
:1081A0008CE4758AA822758CE4758AA80CBC14032B
:0881B0000D7C0032C297C2965B
:00000001FF
