:0300000002827009
:03000B000281006F
:03001B000281114E
:10810000758A830E320281600281A80281EA0282AE
:108110002EC28EE81460EE1460EE1460EE1460EE71
:10812000BDA57FBB0023BA001BB9001108793B7ABB
:10813000097B05759050C2027D00028261EEFF7ED0
:1081400000197A0A1A7B06C2021B7D00200256BB68
:1081500005067590A0028261759090D2020282613C
:10816000BDA53FBB0023BA001BB9001108793B7ABB
:10817000097B057590A0C2027D00028261EEFF7E40
:1081800000197A0A1A7B06C2021B7D00200216BB68
:1081900004004006759050028261759090D20202F0
:1081A0008261028269028261BDA5F7BB0023BA0029
:1081B0001BB9001108793B7A097B05759050C20202
:1081C0007D00028261EEFF7E00197A0A1A7B06C2E8
:1081D000021B7D002002CEBB030040067590A0026A
:1081E0008261759090D202028261BDA57CBB0025A0
:1081F000BA001DB9001308793B7A097B597C3B759D
:108200009050C2027D00028261EEFF7E00197A0A60
:108210001A7B06C2021B7D00200246BB02004006FC
:10822000759050028261759090D202028261BD0BFE
:1082300038BB0017BA000DB9000302826FEEFF7E53
:1082400000197A0A1A7B5AE9FCC2021B7D0020023F
:1082500010DC0302825C759050028261759090D2AE
:1082600002758C9BD28E02826F0D758C9BD28E32E2
:108270007590FFC2D3C2D4C28CC28E758C9B758A96
:10828000837800793B7A097B057D007E007F00754D
:1082900010807511407512207513107590A07589A6
:1082A0003775A88AD28CD28EEF8506F0A475F00AB5
:1082B0008443F02085F01275F00A8443F04085F085
:1082C00011D2E7F51090000275140775150FE5132C
:1082D000F0751700D517FDE512F0D517FDE511F083
:1082E000D517FDE510F0D517FDD515E2D514DC80C6
:0182F000B7D6
:00000001FF
