:0300000002827306
:03000B000281006F
:03001B000281144B
:10810000758A830E320281660281AE0281F002829C
:1081100034028271758CB0E81460EA1460EA14606D
:10812000EA1460EABDBEEABB0026BA001BB9001122
:1081300008793B7A097B05759050C2027D00028266
:108140006EEEFF7E00197A0A1A7B06C2027590A0B5
:108150001B7D00200255BB0200400302826E759019
:1081600090D20202826EBDA13FBB0023BA001BB9B0
:10817000001108793B7A097B057590A0C2027D0049
:1081800002826EEEFF7E00197A0A1A7B06C2021B7B
:108190007D00200216BB0100400675905002826EE1
:1081A000759090D20202826E02827102826EBDA030
:1081B000F7BB0023BA001BB9001108793B7A097B91
:1081C00005759050C2027D0002826EEEFF7E00199E
:1081D0007A0A1A7B06C2021B7D002002CEBB000079
:1081E00040067590A002826E759090D20202826E57
:1081F000BDBE7EBB0025BA001DB9001308793B7ACD
:10820000097B597C3B759050C2027D0002826EEE64
:10821000FF7E00197A0A1A7B06C2021B7D0020022B
:108220004DBB0000400675905002826E759090D252
:108230000202826EBD0B3ABB001EBA0014B9010ADD
:10824000C28CC28E7590FF028272EEFF7E00197A98
:108250000A1A7B5AE9FCC2021B7D00200210DC03D3
:1082600002826975905002826E759090D2020282ED
:10827000720D327590FFC2D3C2D4C28CC28E758C7F
:108280009B758A837800793B7A097B057D007E00A7
:108290007F00751010751120751240751380759050
:1082A000A075893775A88A9000037482F0C202D243
:1082B0008CD28EEF75F00A8443F08085F01375F050
:1082C0000A8443F04085F01290000275140F751572
:1082D0000FE513F0751700D517FDE512F0D517FD62
:1082E000E511F0D517FDE510F0D517FDD515E2D550
:0482F00014DC80BF5B
:00000001FF
