:030000000281007A
:108100009000037482F078007410758200F0E589A5
:108110004401F589758CEC758A7875376412812B6A
:108120002091FD12813412817280F2D29000000001
:1081300000C29022900001E0C39480500D2480F58D
:10814000F0748195F07B0002814C7B0175F00A840C
:10815000C0F075F004A4D0F0C5F0C0F075F004A430
:1081600075F00A84A8F0D0F025F075F00A84A9F023
:10817000FA22E84410758202F0128194E94420F05A
:10818000128194EA4440F0128194BB0106748DF090
:1081900012819422D28C308DFDD53705B29375377C
:0C81A00064C28DC28C758CEC758A78224C
:00000001FF
