:030000000281007A
:108100007482758203F07411758200F0780C790026
:10811000E5894401F589758CEC758A7812816520B2
:1081200091FD758201E0FBEBB9000A28C297D29657
:10813000790102813C98C296D2977900F533128179
:10814000652091FD12816E128180758201E0B4007C
:10815000030281ACB477030281ACB533E1E875F07A
:1081600002A4F880C2D29000000000C2902275F0F4
:10817000048475F003A475F00A84F53485F0352283
:10818000E5354440758202F0128194E5344420F0D4
:1081900012819422D28C308DFDD53705B29375377C
:1081A00064C28DC28C758CEC758A7822C297C29697
:00000001FF
