:030000000281007A
:108100007482758203F07410758200F0E589440171
:10811000F589758CEC758A78D2D3D2D47536007512
:1081200037641281302091FD0281391281B480F2CE
:10813000D29000000000C29022758138753502751A
:108140008201740075F000E07531007532007533FE
:1081500000C330E704947F80039480F475F00A84B0
:10816000C0E07404A4940A20D70D240A75F00A8490
:1081700085F033F5328004240AF533D0E00281AE75
:10818000C375F00A84C0F075F004A4F531D0E07531
:10819000F004A42532940A20D710240A75F00A842A
:1081A0002531F53185F0320281B1240AF532B4006F
:1081B000CF212B22E5314420758202F01281DDE5CA
:1081C00036B40110E5324440F01281DDE5334480DD
:1081D000F01281DD74007410F01281DD22D28C3037
:1081E0008DFDD5370D7537640536E536B402037558
:0D81F0003600C28DC28C758CEC758A782229
:00000001FF
