:030000000281007A
:03000B0002814926
:03001B0002814F10
:108100009000037482F09000027D0F8D2E74FF9D0D
:10811000F8FBF52F7A01752D007F0075892775A86A
:108120009AD295D297C294C296758C05D28E758AD2
:1081300005D28CE52C75F00A842440F00000E5F0AF
:108140002480F0000080EC80FE052D758A05320C3D
:10815000BCFF150E7C00BE100F7E00F9E52D75F0FA
:1081600002A4F52C752D00E9BF0003128184BF0124
:10817000031281AABF02031281DCBF030312820231
:10818000758C053220960E1ABA001E0DEDFAD296A5
:10819000C2970281A918B800101BEBF8D297C296BB
:1081A000BB00067F0178FF7BFF2220960E1ABA0FD4
:1081B0002A1DEDFAD296C2970281DB08B8FF1C1B7C
:1081C000EBF8D297C296BB0F127F02D296D294C21E
:1081D00097C29578F07A017BF07D0F2220950E1AD8
:1081E000BA001E0DEDFAD295C29402820118B800B1
:1081F000101BEBF8D294C295BB00067F0378FF7B7F
:10820000FF2220950E1ABA0F281DEDFAD295C294BE
:1082100002823108B8FF1A1BEBF8D294C295BB0F4B
:10822000107F00C294C296D295D29778FF7A327BA3
:02823000FF222B
:00000001FF
