:030000000281007A
:03000B000281F57A
:108100001281E67E0079007A007B007C007D007899
:1081100030AFFF7482900003F07411900000F043C0
:108120008901D29FD29C43A882BFFF0280FB7528A1
:10813000007529008F30900002758C63758ABFD25C
:108140008C308C521281D512822B75F00A844440F7
:10815000F0128221E4F0E5F04480F0128221E4F094
:10816000B52804E902817EEBB9031379007E00751E
:108170002800C28CE4F018028196C28C808275F0CF
:108180000A844410F0128221E4F0E5F04420F01259
:108190008221E4F080ABE8C39430FB60DD862912D5
:1081A00081D512822BB5290A1281E6752801D28C5D
:1081B000808F40061281F00281BD1281EB75F00ABA
:1081C000844440F0128221E4F0E5F04480F0128211
:1081D00021E4F080CAD290D291C2902091FD90000B
:1081E00001E090000222C296C29722C297D2962244
:1081F000C296D297220EBE19217E0009B90A1B79B8
:10820000000831D512822BF6E8C39430B5300BE864
:10821000C39401F8C28C79007E00758C63758ABFA7
:10822000327C000000000CBC00F92275F05AA4F565
:1082300025E5F023F5F0E52523540153F0FE45F044
:01824000221B
:00000001FF
