:03000000020113E7
:10000B00C28D758CEC758A787801888020800920E8
:10001B00813C20826F0200C530900F3091133092DB
:10002B001730931B30941F0200F8743112010880B3
:10003B00EA743212010880E6743312010880E2740C
:10004B004312010880DE74441201080200F830905C
:10005B000F30911330921730931B30941F0200F81E
:10006B00743412010880EA743512010880E6743684
:10007B0012010880E2744512010880DE74461201F9
:10008B00080200F830900F30911330921730931B09
:10009B0030941F0200F8743712010880EA7438128A
:1000AB00010880E6743912010880E27447120108D6
:1000BB0080DE74481201080200F830900F30911363
:1000CB0030921730931B30941F0200F874411201C9
:1000DB000880EA743012010880E67442120108802D
:1000EB00E2744912010880DE744A120108E823F811
:1000FB00B8100280030200157800740032F5997471
:10010B000DF599740AF59922758921758DFDD29E8D
:10011B00C29F758CEC758A78D2A9D2AFD28C80FE37
:00000001FF
