:030000000281007A
:108100007482900003F07411900000F0E58944013E
:10811000F589758C3C758AB0D2D4128227128233CD
:108120009085FF858330858231C296C29775320073
:108130007533007D0A853083853182A38583308540
:108140008231E0B4FF0280D8F53212824A1281D126
:108150001281E312818D1281D11281E31281F31217
:1081600081671281B980EFD28C308DFDC28DC28CB7
:10817000758C3C758AB022758CEC758A78D28C30FF
:108180008DFDC28DC28C758C3C758AB02279C8E594
:108190003375F00A849000024410F03177E5F04422
:1081A00020F03177E53275F00A844440F03177E50C
:1081B000F04480F03177D9D722E53375F00A849006
:1081C0000002DD077D0A4440F08005E5F04480F0C0
:1081D00022D29000000000C2902091FD900001E0AA
:1081E000F53422E53475F00C84AAF075F009A42A60
:1081F000F53322C3E532AB339B9238B40009C29603
:10820000C2971282152129203806C297D29680047F
:10821000C296D297229000027B0F74F1F0316774FE
:1082200000F03167DBF4227C0A9085FF74FFF0A335
:10823000DCFC22742D9085FFF0A37400F0A3745A27
:10824000F0A3741EF0A3743CF022A832E8C4540FCB
:1082500075F00AA4F5F0E8540FF8E5F028F532229D
:00000001FF
