:030000000281007A
:10810000C2D3C2D412811512814412816A7590F0D3
:1081100012819B80EBEB88F084FD7C00FE7590A0C3
:108120007F00740004B42DFC0FEFB506F57590F0D8
:10813000740004B42DFC0FEFB4FAF50CEE2DFEEC38
:10814000B500DA227C007590A07F00740004B42D85
:10815000FC0FEFB503F57590F0740004B42DFC0F1F
:10816000EFB4FAF50CECB501DD22EB8AF084FD7C6E
:1081700000EB9DFE7590A07F00740004B42DFC0FF1
:10818000EFB506F57590F0740004B42DFC0FEFB454
:10819000FAF50CEE9DFEECB502DA227508077509BA
:0E81A000FF750AFFD50AFDD509F7D508F122B3
:00000001FF
