:030000000281007A
:03000B0002831A53
:03001B0002833C21
:10810000C2D3C2D485000585000685000885000914
:1081100085000A85000B85000C85000D85000E7515
:10812000A88A75B80A7589D1758BFF758DFF758A18
:1081300000758CFC7588501281C012823A12829BA5
:10814000C2D3D2D47B007C00C200E88AF0841281C2
:108150008CADF074FF8AF084AEF089F0A412818CAB
:10816000E5F02CFCEE0489F0A430D204AFF0D2008C
:108170002D30D2030FD200300005F8A90780C98A3C
:10818000F08412818CADF0C2D3C2D4222B30D20144
:108190000CFB22C2D3D2D47C00E98BF084FC8AF0A1
:1081A000A4FDAEF0EC8BF0A42EFEB51107EDB510DA
:1081B000030281BF30D7080CEC80E3C2D3C2D422C3
:1081C0008B108C1188123140E5138EF0A4F51885C0
:1081D000F019E5148EF0A42519F5197510A675117E
:1081E0000EE50A75F008A4F51285F013E50875F0A0
:1081F00080842512F512E50975F002A42512F51206
:10820000E513B4000B314085131A85141B02821844
:10821000319385141A751B00E519B51B08E518B5CF
:108220001A0302822D20D705D20102822FC201E853
:10823000B5060302823930D78722AD00AE00751033
:10824000A675110EE50A75F008A4F51285F013E580
:108250000875F080842512F512E50975F002A42551
:1082600012F512E513B4000B314085131A85141B67
:1082700002827B319385141A751B00ECB51B07EB4A
:10828000B51A0302828E20D705D201028290C20164
:10829000E9B5060302829A30D7A022AD00AE008B6A
:1082A000108C118A123140EA9E8513F0A4F51885CE
:1082B000F019E5148EF0A42519F5197510A675119D
:1082C0000EE50A75F008A4F51285F013E50875F0BF
:1082D00080842512F512E50975F002A42512F51225
:1082E000E513B4000B314085131A85141B0282F884
:1082F000319385141A751B00E519B51B08E518B5EF
:108300001A0302830D20D705D20102830FC201EAAE
:10831000B5060302831930D78222758A00758CFC5A
:1083200074F4B50508050685000502832F050520B0
:1083300002067590FF02833B75905032758BFF7576
:108340008DFFE58A950B30D702050CF508E58C9575
:108350000C30D702050DF509E505950DF50A858A5E
:088360000B858C0C85050D3224
:00000001FF
