:030000000281007A
:10810000C2D3C2D49000037482F09000007410F0C7
:10811000D290C2902091FD900001E079207A407BBE
:108120008094805004F402812E7C1B0281307C01FB
:1081300075F004A4F8C2E0C2E1C2E2C2E325F0C4D3
:1081400075F00A84C8C2E4C2E5C2E6C2E7C5F0C45D
:1081500025F075F00A84FDE5F02BFBEDC8C4287509
:10816000F00A8429F9E5F02AFA900002ECF0128175
:1081700082E9F0128182EAF0128182EBF0128182B0
:0B818000808E7E067F64DFFEDEFA22A8
:00000001FF
