:030000000281007A
:108100009000037482F07400C2D3C2D4755010750D
:10811000512075524075538075450075892612812E
:10812000D01281E11282397849E6B5480B128140BC
:1081300012815712824080EC1281D01281E180E4DA
:10814000D28C78507964D9FED8FAC28CE58AF5458C
:10815000758A00758C0022C2D3D2D47840E545756B
:10816000F0128475F00A84600700F6080281750039
:10817000E54576000875F01284F6E4C5F075F00A5E
:10818000A475F00008B845EDC2D422795074019569
:1081900040600300700578400281A278410281A20C
:1081A0007400E627900002F01281B308097400B948
:1081B00054F0227BFFDBFE7BFFDBFE7BFFDBFE7BE5
:1081C000FFDBFE7BFFDBFE7BFFDBFE7BFFDBFE22BC
:1081D0007848E67849F6C31392221392211392202D
:1081E00022C296C2977904D296128239C29612821E
:1081F00039D9F4202005C2970281FDD297000000F2
:10820000D296128239C296128239202105C2970273
:108210008214D297000000D296128239C29612823E
:1082200039202205C29702822BD297000000D296F5
:10823000128239C2961282392278FF0000D8FC22BD
:1082400031B3318B31B3318B31B3318B31B3318BAE
:1082500031B3318B31B3318B31B3318B31B3318B9E
:1082600031B3318B31B3318B31B3318B31B3318B8E
:10827000318B31B3318B31B3318B31B3318B31B37E
:10828000318B31B3318B31B3318B318B31B3318B96
:1082900031B3318B31B3318B31B3318B31B3318B5E
:1082A00031B3318B31B3318B31B3318B31B3318B4E
:1082B00031B3318B31B3318B31B3318B31B3318B3E
:1082C00031B3318B31B3318B31B3318B31B3318B2E
:1082D00031B3318B318B31B3318B31B3318B31B31E
:1082E000318B31B3318B31B3318B31B3318B31B30E
:1082F000318B31B3318B31B3318B31B3318B31B3FE
:10830000318B31B3318B31B3318B31B3318B31B3ED
:10831000318B31B3318B31B3318B31B3318B318B05
:1083200031B3318B31B3318B31B3318B31B3318BCD
:1083300031B3318B31B3318B31B3318B31B3318BBD
:1083400031B3318B31B3318B31B3318B31B3318BAD
:1083500031B3318B31B3318B31B3318B31B3318B9D
:0B83600031B3318B31B3318B31B322CC
:00000001FF
