:10000000759880D29FD29BE58953890F4389A0754B
:100010008DFDF58902015930800C30811030821439
:10002000308318020042D280C281020044D281C2D1
:1000300082020044D282C283020044D283C2800280
:100040000044C28002015C30800930812730824543
:1000500030836374FE6590607E74FD6590607D748E
:10006000FB6590607C74F76590607B74EF659060D1
:100070007A02013E74FE6590607674FD659060754D
:1000800074FB6590607474F76590607374EF6590AD
:10009000607202013E74FE6590606E74FD65906052
:1000A0006D74FB6590606C74F76590606B74EF65C0
:1000B00090606A02013E74FE6590606674FD659012
:1000C000606574FB6590606474F76590606374EFBD
:1000D0006590606202013E743102013F7432020198
:1000E0003F743302013F744302013F744402013FF5
:1000F000743402013F743502013F743602013F74CB
:100100004502013F744602013F743702013F7438D3
:1001100002013F743902013F744702013F744802F3
:10012000013F744102013F743002013F74420201F9
:100130003F744902013F744A02013F02013EE4025A
:10014000015EF0A302016020D003020152D29B02A3
:100150000154C29BF599020162E40117014770E264
:0601600070E580F580FE51
:00000001FF
