:030000000281007A
:108100009000037482F0D2909000007420F07530DB
:108110002D75311475320A75332D753400AF3078F2
:10812000307E05312B801CDEFA80FED290128168F1
:10813000128168128168C2902091FD900001E09444
:108140001EF922E98F50B55011D297D29631790895
:10815000E6FF318D318D318D80CD4006D297C296AC
:1081600080C1D296C29780BB7BFFDBFE7BFFDBFE2C
:108170007BFFDBFE7BFFDBFE227C197B647D08A49A
:108180001ABA00FB1BBB00F51CBC00EF22316831A2
:068190006831683168222D
:00000001FF
