:100000000200BD111F7C017F047EFEEEF59023FEF1
:10001000E5A07D0513505F0CDDFADFEF80E522746B
:10002000FFB5A0FD22791F773179207732792177CA
:100030003379227743792377447924773479257784
:10004000357926773679277745792877467929775C
:1000500037792A7738792B7739792C7747792D7743
:1000600048792E7741792F77307930774279317717
:10007000497932774A22EC241EF9E7FC0200B322C8
:10008000D29FD29EC29DC29CD29A4389207598620B
:10009000758CFD758AFD22D28E22C28E227B00ECE9
:1000A0001350FD0B70FAEB75F002D5F003C29A22E3
:1000B000D29A22ECF0A3119DF59901032290000041
:0C00C0001180119711251103119A80FE88
:00000001FF
